[
  {
    "hex": "01000000010000000000000000000000000000000000000000000000000000000000000000ffffffff00ffffffff0200e1f505000000001c6a1a4466547843016688df29563f6e8a6227d09322435237453229d900ca9a3b000000001976a9148080dad765cbfd1c38f95e88592e24e43fb6428288ac00000000",
    "vin": [
      {
        "coinbase": "",
        "sequence": 4294967295
      }
    ],
    "hash": "18a2c79448e8feeed9ee3e6a5ea9b2640062557ddac8e9ac2ee04f62ed484f24",
    "size": 122,
    "txid": "18a2c79448e8feeed9ee3e6a5ea9b2640062557ddac8e9ac2ee04f62ed484f24",
    "vout": [
      {
        "n": 0,
        "value": 1,
        "scriptPubKey": {
          "asm": "OP_RETURN 4466547843016688df29563f6e8a6227d09322435237453229d9",
          "hex": "6a1a4466547843016688df29563f6e8a6227d09322435237453229d9",
          "type": "nulldata"
        }
      },
      {
        "n": 1,
        "value": 10,
        "scriptPubKey": {
          "asm": "OP_DUP OP_HASH160 8080dad765cbfd1c38f95e88592e24e43fb64282 OP_EQUALVERIFY OP_CHECKSIG",
          "hex": "76a9148080dad765cbfd1c38f95e88592e24e43fb6428288ac",
          "type": "pubkeyhash",
          "reqSigs": 1,
          "addresses": ["msER9bmJjyEemRpQoS8YYVL21VyZZrSgQ7"]
        }
      }
    ],
    "vsize": 122,
    "weight": 488,
    "version": 1,
    "locktime": 0
  },
  {
    "hex": "01000000010000000000000000000000000000000000000000000000000000000000000000ffffffff6b0004ffff001d01044c6146696e616e6369616c2054696d65732032332f4d61722f3230323020546865204665646572616c20526573657276652068617320676f6e652077656c6c20706173742074686520706f696e74206f6620e28098514520696e66696e697479e28099ffffffff050000c16ff28623001976a914b36814fd26190b321aa985809293a41273cfe15e88ac0000c16ff28623001976a9148857c8c3ce618fe7ae5f8ee11ecc8ea421a1d82988ac0000c16ff28623001976a9148080dad765cbfd1c38f95e88592e24e43fb6428288ac0000c16ff28623001976a9146688df29563f6e8a6227d09322435237453229d988ac00e40b54020000001976a9149ab96d8f6df07466f5b497153ba69ea73b7a656188ac00000000",
    "vin": [
      {
        "coinbase": "0004ffff001d01044c6146696e616e6369616c2054696d65732032332f4d61722f3230323020546865204665646572616c20526573657276652068617320676f6e652077656c6c20706173742074686520706f696e74206f6620e28098514520696e66696e697479e28099",
        "sequence": 4294967295
      }
    ],
    "hash": "9fb9c46b1d12dae8a4a35558f7ef4b047df3b444b1ead61d334e4f187f5f58b7",
    "size": 328,
    "txid": "9fb9c46b1d12dae8a4a35558f7ef4b047df3b444b1ead61d334e4f187f5f58b7",
    "vout": [
      {
        "n": 0,
        "value": 100000000,
        "scriptPubKey": {
          "asm": "OP_DUP OP_HASH160 b36814fd26190b321aa985809293a41273cfe15e OP_EQUALVERIFY OP_CHECKSIG",
          "hex": "76a914b36814fd26190b321aa985809293a41273cfe15e88ac",
          "type": "pubkeyhash",
          "reqSigs": 1,
          "addresses": ["mwsZw8nF7pKxWH8eoKL9tPxTpaFkz7QeLU"]
        }
      },
      {
        "n": 1,
        "value": 100000000,
        "scriptPubKey": {
          "asm": "OP_DUP OP_HASH160 8857c8c3ce618fe7ae5f8ee11ecc8ea421a1d829 OP_EQUALVERIFY OP_CHECKSIG",
          "hex": "76a9148857c8c3ce618fe7ae5f8ee11ecc8ea421a1d82988ac",
          "type": "pubkeyhash",
          "reqSigs": 1,
          "addresses": ["mswsMVsyGMj1FzDMbbxw2QW3KvQAv2FKiy"]
        }
      },
      {
        "n": 2,
        "value": 100000000,
        "scriptPubKey": {
          "asm": "OP_DUP OP_HASH160 8080dad765cbfd1c38f95e88592e24e43fb64282 OP_EQUALVERIFY OP_CHECKSIG",
          "hex": "76a9148080dad765cbfd1c38f95e88592e24e43fb6428288ac",
          "type": "pubkeyhash",
          "reqSigs": 1,
          "addresses": ["msER9bmJjyEemRpQoS8YYVL21VyZZrSgQ7"]
        }
      },
      {
        "n": 3,
        "value": 100000000,
        "scriptPubKey": {
          "asm": "OP_DUP OP_HASH160 6688df29563f6e8a6227d09322435237453229d9 OP_EQUALVERIFY OP_CHECKSIG",
          "hex": "76a9146688df29563f6e8a6227d09322435237453229d988ac",
          "type": "pubkeyhash",
          "reqSigs": 1,
          "addresses": ["mps7BdmwEF2vQ9DREDyNPibqsuSRZ8LuwQ"]
        }
      },
      {
        "n": 4,
        "value": 100,
        "scriptPubKey": {
          "asm": "OP_DUP OP_HASH160 9ab96d8f6df07466f5b497153ba69ea73b7a6561 OP_EQUALVERIFY OP_CHECKSIG",
          "hex": "76a9149ab96d8f6df07466f5b497153ba69ea73b7a656188ac",
          "type": "pubkeyhash",
          "reqSigs": 1,
          "addresses": ["mud4VMfbBqXNpbt8ur33KHKx8pk3npSq8c"]
        }
      }
    ],
    "vsize": 328,
    "weight": 1312,
    "version": 1,
    "locktime": 0
  }
]
