[
  {
    "tx": [
      {
        "hex": "040000000001010000000000000000000000000000000000000000000000000000000000000000ffffffff025100ffffffff0300ccfec4010000001976a9148857c8c3ce618fe7ae5f8ee11ecc8ea421a1d82988ac000057a6160000000017a914d33d91b421ec4d8d2af5e94e12ec58ea0009191e87000000000000000000266a24aa21a9ede2f61c3f71d1defd3fa999dfa36953755c690689799962b48bebd836974e8cf9000120000000000000000000000000000000000000000000000000000000000000000000000000",
        "vin": [
          {
            "coinbase": "5100",
            "sequence": 4294967295
          }
        ],
        "hash": "6e78ceb80341046be24afb30567a81018afeb068f3435712f547cde29060b24a",
        "size": 205,
        "txid": "6bbc58bd6fd9597d501101810101d0241717fded3577b773d27dc77c2204a054",
        "vout": [
          {
            "n": 0,
            "value": 76,
            "tokenId": 0,
            "scriptPubKey": {
              "asm": "OP_DUP OP_HASH160 8857c8c3ce618fe7ae5f8ee11ecc8ea421a1d829 OP_EQUALVERIFY OP_CHECKSIG",
              "hex": "76a9148857c8c3ce618fe7ae5f8ee11ecc8ea421a1d82988ac",
              "type": "pubkeyhash",
              "reqSigs": 1,
              "addresses": ["mswsMVsyGMj1FzDMbbxw2QW3KvQAv2FKiy"]
            }
          },
          {
            "n": 1,
            "value": 3.8,
            "tokenId": 0,
            "scriptPubKey": {
              "asm": "OP_HASH160 d33d91b421ec4d8d2af5e94e12ec58ea0009191e OP_EQUAL",
              "hex": "a914d33d91b421ec4d8d2af5e94e12ec58ea0009191e87",
              "type": "scripthash",
              "reqSigs": 1,
              "addresses": ["2NCWAKfEehP3qibkLKYQjXaWMK23k4EDMVS"]
            }
          },
          {
            "n": 2,
            "value": 0,
            "tokenId": 0,
            "scriptPubKey": {
              "asm": "OP_RETURN aa21a9ede2f61c3f71d1defd3fa999dfa36953755c690689799962b48bebd836974e8cf9",
              "hex": "6a24aa21a9ede2f61c3f71d1defd3fa999dfa36953755c690689799962b48bebd836974e8cf9",
              "type": "nulldata"
            }
          }
        ],
        "vsize": 178,
        "weight": 712,
        "version": 4,
        "locktime": 0
      }
    ],
    "nTx": 1,
    "bits": "207fffff",
    "hash": "21b1a7b6fd0322581a60e7320b0c10843894b5707c950bded620e1dacfa85f39",
    "size": 396,
    "time": 1635739354,
    "height": 1,
    "minter": "mswsMVsyGMj1FzDMbbxw2QW3KvQAv2FKiy",
    "weight": 1476,
    "nonutxo": [
      {
        "AnchorReward": 0.2,
        "IncentiveFunding": 20
      }
    ],
    "version": 536870912,
    "chainwork": "0000000000000000000000000000000000000000000000000000000000000004",
    "difficulty": 4.656542373906925e-10,
    "masternode": "e86c027861cc0af423313f4152a44a83296a388eb51bf1a6dde9bd75bed55fb4",
    "mediantime": 1635739354,
    "merkleroot": "6bbc58bd6fd9597d501101810101d0241717fded3577b773d27dc77c2204a054",
    "versionHex": "20000000",
    "mintedBlocks": 1,
    "strippedsize": 360,
    "confirmations": 201,
    "nextblockhash": "de7233400f5eb1dcf96442c5406f42a8c1b2e817d3eaad954474c494bba85cbf",
    "stakeModifier": "fdd82eafa32300653d3b2d9b98a6650b4b15fe2eb32cdd847d3bf2272514cfbf",
    "previousblockhash": "d744db74fb70ed42767ae028a129365fb4d7de54ba1b6575fb047490554f8a7b"
  },
  {
    "tx": [
      {
        "hex": "01000000010000000000000000000000000000000000000000000000000000000000000000ffffffff6b0004ffff001d01044c6146696e616e6369616c2054696d65732032332f4d61722f3230323020546865204665646572616c20526573657276652068617320676f6e652077656c6c20706173742074686520706f696e74206f6620e28098514520696e66696e697479e28099ffffffff050000c16ff28623001976a914b36814fd26190b321aa985809293a41273cfe15e88ac0000c16ff28623001976a9148857c8c3ce618fe7ae5f8ee11ecc8ea421a1d82988ac0000c16ff28623001976a9148080dad765cbfd1c38f95e88592e24e43fb6428288ac0000c16ff28623001976a9146688df29563f6e8a6227d09322435237453229d988ac00e40b54020000001976a9149ab96d8f6df07466f5b497153ba69ea73b7a656188ac00000000",
        "vin": [
          {
            "coinbase": "0004ffff001d01044c6146696e616e6369616c2054696d65732032332f4d61722f3230323020546865204665646572616c20526573657276652068617320676f6e652077656c6c20706173742074686520706f696e74206f6620e28098514520696e66696e697479e28099",
            "sequence": 4294967295
          }
        ],
        "hash": "9fb9c46b1d12dae8a4a35558f7ef4b047df3b444b1ead61d334e4f187f5f58b7",
        "size": 328,
        "txid": "9fb9c46b1d12dae8a4a35558f7ef4b047df3b444b1ead61d334e4f187f5f58b7",
        "vout": [
          {
            "n": 0,
            "value": 100000000,
            "scriptPubKey": {
              "asm": "OP_DUP OP_HASH160 b36814fd26190b321aa985809293a41273cfe15e OP_EQUALVERIFY OP_CHECKSIG",
              "hex": "76a914b36814fd26190b321aa985809293a41273cfe15e88ac",
              "type": "pubkeyhash",
              "reqSigs": 1,
              "addresses": ["mwsZw8nF7pKxWH8eoKL9tPxTpaFkz7QeLU"]
            }
          },
          {
            "n": 1,
            "value": 100000000,
            "scriptPubKey": {
              "asm": "OP_DUP OP_HASH160 8857c8c3ce618fe7ae5f8ee11ecc8ea421a1d829 OP_EQUALVERIFY OP_CHECKSIG",
              "hex": "76a9148857c8c3ce618fe7ae5f8ee11ecc8ea421a1d82988ac",
              "type": "pubkeyhash",
              "reqSigs": 1,
              "addresses": ["mswsMVsyGMj1FzDMbbxw2QW3KvQAv2FKiy"]
            }
          },
          {
            "n": 2,
            "value": 100000000,
            "scriptPubKey": {
              "asm": "OP_DUP OP_HASH160 8080dad765cbfd1c38f95e88592e24e43fb64282 OP_EQUALVERIFY OP_CHECKSIG",
              "hex": "76a9148080dad765cbfd1c38f95e88592e24e43fb6428288ac",
              "type": "pubkeyhash",
              "reqSigs": 1,
              "addresses": ["msER9bmJjyEemRpQoS8YYVL21VyZZrSgQ7"]
            }
          },
          {
            "n": 3,
            "value": 100000000,
            "scriptPubKey": {
              "asm": "OP_DUP OP_HASH160 6688df29563f6e8a6227d09322435237453229d9 OP_EQUALVERIFY OP_CHECKSIG",
              "hex": "76a9146688df29563f6e8a6227d09322435237453229d988ac",
              "type": "pubkeyhash",
              "reqSigs": 1,
              "addresses": ["mps7BdmwEF2vQ9DREDyNPibqsuSRZ8LuwQ"]
            }
          },
          {
            "n": 4,
            "value": 100,
            "scriptPubKey": {
              "asm": "OP_DUP OP_HASH160 9ab96d8f6df07466f5b497153ba69ea73b7a6561 OP_EQUALVERIFY OP_CHECKSIG",
              "hex": "76a9149ab96d8f6df07466f5b497153ba69ea73b7a656188ac",
              "type": "pubkeyhash",
              "reqSigs": 1,
              "addresses": ["mud4VMfbBqXNpbt8ur33KHKx8pk3npSq8c"]
            }
          }
        ],
        "vsize": 328,
        "weight": 1312,
        "version": 1,
        "locktime": 0
      },
      {
        "hex": "01000000010000000000000000000000000000000000000000000000000000000000000000ffffffff00ffffffff0200e1f505000000001c6a1a4466547843018857c8c3ce618fe7ae5f8ee11ecc8ea421a1d82900ca9a3b000000001976a914b36814fd26190b321aa985809293a41273cfe15e88ac00000000",
        "vin": [
          {
            "coinbase": "",
            "sequence": 4294967295
          }
        ],
        "hash": "e86c027861cc0af423313f4152a44a83296a388eb51bf1a6dde9bd75bed55fb4",
        "size": 122,
        "txid": "e86c027861cc0af423313f4152a44a83296a388eb51bf1a6dde9bd75bed55fb4",
        "vout": [
          {
            "n": 0,
            "value": 1,
            "scriptPubKey": {
              "asm": "OP_RETURN 4466547843018857c8c3ce618fe7ae5f8ee11ecc8ea421a1d829",
              "hex": "6a1a4466547843018857c8c3ce618fe7ae5f8ee11ecc8ea421a1d829",
              "type": "nulldata"
            }
          },
          {
            "n": 1,
            "value": 10,
            "scriptPubKey": {
              "asm": "OP_DUP OP_HASH160 b36814fd26190b321aa985809293a41273cfe15e OP_EQUALVERIFY OP_CHECKSIG",
              "hex": "76a914b36814fd26190b321aa985809293a41273cfe15e88ac",
              "type": "pubkeyhash",
              "reqSigs": 1,
              "addresses": ["mwsZw8nF7pKxWH8eoKL9tPxTpaFkz7QeLU"]
            }
          }
        ],
        "vsize": 122,
        "weight": 488,
        "version": 1,
        "locktime": 0
      },
      {
        "hex": "01000000010000000000000000000000000000000000000000000000000000000000000000ffffffff00ffffffff0200e1f505000000001c6a1a4466547843016688df29563f6e8a6227d09322435237453229d900ca9a3b000000001976a9148080dad765cbfd1c38f95e88592e24e43fb6428288ac00000000",
        "vin": [
          {
            "coinbase": "",
            "sequence": 4294967295
          }
        ],
        "hash": "18a2c79448e8feeed9ee3e6a5ea9b2640062557ddac8e9ac2ee04f62ed484f24",
        "size": 122,
        "txid": "18a2c79448e8feeed9ee3e6a5ea9b2640062557ddac8e9ac2ee04f62ed484f24",
        "vout": [
          {
            "n": 0,
            "value": 1,
            "scriptPubKey": {
              "asm": "OP_RETURN 4466547843016688df29563f6e8a6227d09322435237453229d9",
              "hex": "6a1a4466547843016688df29563f6e8a6227d09322435237453229d9",
              "type": "nulldata"
            }
          },
          {
            "n": 1,
            "value": 10,
            "scriptPubKey": {
              "asm": "OP_DUP OP_HASH160 8080dad765cbfd1c38f95e88592e24e43fb64282 OP_EQUALVERIFY OP_CHECKSIG",
              "hex": "76a9148080dad765cbfd1c38f95e88592e24e43fb6428288ac",
              "type": "pubkeyhash",
              "reqSigs": 1,
              "addresses": ["msER9bmJjyEemRpQoS8YYVL21VyZZrSgQ7"]
            }
          }
        ],
        "vsize": 122,
        "weight": 488,
        "version": 1,
        "locktime": 0
      },
      {
        "hex": "01000000010000000000000000000000000000000000000000000000000000000000000000ffffffff00ffffffff0200e1f505000000001c6a1a4466547843018f765e54f7b309965b6eb6d455de6f04445fe79400ca9a3b000000001976a914c2700426e3b889b602df089a4d53aef05fe6316a88ac00000000",
        "vin": [
          {
            "coinbase": "",
            "sequence": 4294967295
          }
        ],
        "hash": "35db8101a4fb72d27af93622a20cdfee160466112252ac2866d5ccd564b55b25",
        "size": 122,
        "txid": "35db8101a4fb72d27af93622a20cdfee160466112252ac2866d5ccd564b55b25",
        "vout": [
          {
            "n": 0,
            "value": 1,
            "scriptPubKey": {
              "asm": "OP_RETURN 4466547843018f765e54f7b309965b6eb6d455de6f04445fe794",
              "hex": "6a1a4466547843018f765e54f7b309965b6eb6d455de6f04445fe794",
              "type": "nulldata"
            }
          },
          {
            "n": 1,
            "value": 10,
            "scriptPubKey": {
              "asm": "OP_DUP OP_HASH160 c2700426e3b889b602df089a4d53aef05fe6316a OP_EQUALVERIFY OP_CHECKSIG",
              "hex": "76a914c2700426e3b889b602df089a4d53aef05fe6316a88ac",
              "type": "pubkeyhash",
              "reqSigs": 1,
              "addresses": ["myF3aHuxtEuqqTw44EurtVs6mjyc1QnGUS"]
            }
          }
        ],
        "vsize": 122,
        "weight": 488,
        "version": 1,
        "locktime": 0
      },
      {
        "hex": "01000000010000000000000000000000000000000000000000000000000000000000000000ffffffff00ffffffff0200e1f505000000001c6a1a446654784301de3fa64045e6ef4227e832a3886dfc4a121b38ab00ca9a3b000000001976a914b48ac7f6ba3b966c4c5c81a985cd51416cf52c4488ac00000000",
        "vin": [
          {
            "coinbase": "",
            "sequence": 4294967295
          }
        ],
        "hash": "3a64ec587a39d3f5b1e1944c6f800709453ce8fe7a65a63cec8cc2dd26ad8671",
        "size": 122,
        "txid": "3a64ec587a39d3f5b1e1944c6f800709453ce8fe7a65a63cec8cc2dd26ad8671",
        "vout": [
          {
            "n": 0,
            "value": 1,
            "scriptPubKey": {
              "asm": "OP_RETURN 446654784301de3fa64045e6ef4227e832a3886dfc4a121b38ab",
              "hex": "6a1a446654784301de3fa64045e6ef4227e832a3886dfc4a121b38ab",
              "type": "nulldata"
            }
          },
          {
            "n": 1,
            "value": 10,
            "scriptPubKey": {
              "asm": "OP_DUP OP_HASH160 b48ac7f6ba3b966c4c5c81a985cd51416cf52c44 OP_EQUALVERIFY OP_CHECKSIG",
              "hex": "76a914b48ac7f6ba3b966c4c5c81a985cd51416cf52c4488ac",
              "type": "pubkeyhash",
              "reqSigs": 1,
              "addresses": ["mwyaBGGE7ka58F7aavH5hjMVdJENP9ZEVz"]
            }
          }
        ],
        "vsize": 122,
        "weight": 488,
        "version": 1,
        "locktime": 0
      },
      {
        "hex": "01000000010000000000000000000000000000000000000000000000000000000000000000ffffffff00ffffffff0200e1f505000000001c6a1a446654784301d3f2ca03f247b0e6b44d62821a8e11912c10d40500ca9a3b000000001976a9140ecd8fe751e20391dfb8a7f9664d5686db540d9d88ac00000000",
        "vin": [
          {
            "coinbase": "",
            "sequence": 4294967295
          }
        ],
        "hash": "9453c482d36d38b94849feaacd0fe627cf26ff95895b7a12aa6c03d9d024b23c",
        "size": 122,
        "txid": "9453c482d36d38b94849feaacd0fe627cf26ff95895b7a12aa6c03d9d024b23c",
        "vout": [
          {
            "n": 0,
            "value": 1,
            "scriptPubKey": {
              "asm": "OP_RETURN 446654784301d3f2ca03f247b0e6b44d62821a8e11912c10d405",
              "hex": "6a1a446654784301d3f2ca03f247b0e6b44d62821a8e11912c10d405",
              "type": "nulldata"
            }
          },
          {
            "n": 1,
            "value": 10,
            "scriptPubKey": {
              "asm": "OP_DUP OP_HASH160 0ecd8fe751e20391dfb8a7f9664d5686db540d9d OP_EQUALVERIFY OP_CHECKSIG",
              "hex": "76a9140ecd8fe751e20391dfb8a7f9664d5686db540d9d88ac",
              "type": "pubkeyhash",
              "reqSigs": 1,
              "addresses": ["mgsE1SqrcfUhvuYuRjqy6rQCKmcCVKNhMu"]
            }
          }
        ],
        "vsize": 122,
        "weight": 488,
        "version": 1,
        "locktime": 0
      },
      {
        "hex": "01000000010000000000000000000000000000000000000000000000000000000000000000ffffffff00ffffffff0200e1f505000000001c6a1a44665478430131fab767bf34cd1e9e856b5d2c5688358666607600ca9a3b000000001976a9149ab96d8f6df07466f5b497153ba69ea73b7a656188ac00000000",
        "vin": [
          {
            "coinbase": "",
            "sequence": 4294967295
          }
        ],
        "hash": "5a9f884dcfe5650b9454e0a48d83a817b41f3abe1f5e3e6c71d5718b956b675e",
        "size": 122,
        "txid": "5a9f884dcfe5650b9454e0a48d83a817b41f3abe1f5e3e6c71d5718b956b675e",
        "vout": [
          {
            "n": 0,
            "value": 1,
            "scriptPubKey": {
              "asm": "OP_RETURN 44665478430131fab767bf34cd1e9e856b5d2c56883586666076",
              "hex": "6a1a44665478430131fab767bf34cd1e9e856b5d2c56883586666076",
              "type": "nulldata"
            }
          },
          {
            "n": 1,
            "value": 10,
            "scriptPubKey": {
              "asm": "OP_DUP OP_HASH160 9ab96d8f6df07466f5b497153ba69ea73b7a6561 OP_EQUALVERIFY OP_CHECKSIG",
              "hex": "76a9149ab96d8f6df07466f5b497153ba69ea73b7a656188ac",
              "type": "pubkeyhash",
              "reqSigs": 1,
              "addresses": ["mud4VMfbBqXNpbt8ur33KHKx8pk3npSq8c"]
            }
          }
        ],
        "vsize": 122,
        "weight": 488,
        "version": 1,
        "locktime": 0
      },
      {
        "hex": "01000000010000000000000000000000000000000000000000000000000000000000000000ffffffff00ffffffff0200e1f505000000001c6a1a446654784304da58e8b431e692d602cdc3c91f8df9a175fc970900ca9a3b0000000016001420d230f5ae43bc1a66f1c96f196f95b3be2a846600000000",
        "vin": [
          {
            "coinbase": "",
            "sequence": 4294967295
          }
        ],
        "hash": "73ca119312bcb15d09ee87d9629de53cce815b22c8e51d67fee6dffb67a7287a",
        "size": 119,
        "txid": "73ca119312bcb15d09ee87d9629de53cce815b22c8e51d67fee6dffb67a7287a",
        "vout": [
          {
            "n": 0,
            "value": 1,
            "scriptPubKey": {
              "asm": "OP_RETURN 446654784304da58e8b431e692d602cdc3c91f8df9a175fc9709",
              "hex": "6a1a446654784304da58e8b431e692d602cdc3c91f8df9a175fc9709",
              "type": "nulldata"
            }
          },
          {
            "n": 1,
            "value": 10,
            "scriptPubKey": {
              "asm": "0 20d230f5ae43bc1a66f1c96f196f95b3be2a8466",
              "hex": "001420d230f5ae43bc1a66f1c96f196f95b3be2a8466",
              "type": "witness_v0_keyhash",
              "reqSigs": 1,
              "addresses": ["bcrt1qyrfrpadwgw7p5eh3e9h3jmu4kwlz4prx73cqny"]
            }
          }
        ],
        "vsize": 119,
        "weight": 476,
        "version": 1,
        "locktime": 0
      },
      {
        "hex": "01000000010000000000000000000000000000000000000000000000000000000000000000ffffffff00ffffffff0200e1f505000000001c6a1a446654784304e0dc4bafbea4d48f538ae526d8143a7159a510ee00ca9a3b000000001600142679c28d803f75e91f41132f4397dd4b76d9049d00000000",
        "vin": [
          {
            "coinbase": "",
            "sequence": 4294967295
          }
        ],
        "hash": "03280abd3d3ae8dc294c1a572cd7912c3c3e53044943eac62c2f6c4687c87f10",
        "size": 119,
        "txid": "03280abd3d3ae8dc294c1a572cd7912c3c3e53044943eac62c2f6c4687c87f10",
        "vout": [
          {
            "n": 0,
            "value": 1,
            "scriptPubKey": {
              "asm": "OP_RETURN 446654784304e0dc4bafbea4d48f538ae526d8143a7159a510ee",
              "hex": "6a1a446654784304e0dc4bafbea4d48f538ae526d8143a7159a510ee",
              "type": "nulldata"
            }
          },
          {
            "n": 1,
            "value": 10,
            "scriptPubKey": {
              "asm": "0 2679c28d803f75e91f41132f4397dd4b76d9049d",
              "hex": "00142679c28d803f75e91f41132f4397dd4b76d9049d",
              "type": "witness_v0_keyhash",
              "reqSigs": 1,
              "addresses": ["bcrt1qyeuu9rvq8a67j86pzvh5897afdmdjpyankp4mu"]
            }
          }
        ],
        "vsize": 119,
        "weight": 476,
        "version": 1,
        "locktime": 0
      }
    ],
    "nTx": 9,
    "bits": "207fffff",
    "hash": "d744db74fb70ed42767ae028a129365fb4d7de54ba1b6575fb047490554f8a7b",
    "size": 1424,
    "time": 1579045065,
    "height": 0,
    "weight": 5696,
    "nonutxo": [
      {
        "AnchorReward": 0.2,
        "IncentiveFunding": 20
      }
    ],
    "version": 1,
    "chainwork": "0000000000000000000000000000000000000000000000000000000000000002",
    "difficulty": 4.656542373906925e-10,
    "mediantime": 1579045065,
    "merkleroot": "5615dbbb379da893dd694e02d25a7955e1b7471db55f42bbd82b5d3f5bdb8d38",
    "versionHex": "00000001",
    "mintedBlocks": 0,
    "strippedsize": 1424,
    "confirmations": 202,
    "nextblockhash": "21b1a7b6fd0322581a60e7320b0c10843894b5707c950bded620e1dacfa85f39",
    "stakeModifier": "0000000000000000000000000000000000000000000000000000000000000000"
  }
]
